{
  "_format": "hh-sol-artifact-1",
  "contractName": "DH721",
  "sourceName": "contracts/DH721.sol",
  "abi": [
    {
      "inputs": [],
      "stateMutability": "payable",
      "type": "constructor"
    },
    {
      "anonymous": false,
      "inputs": [
        {
          "indexed": true,
          "internalType": "address",
          "name": "owner",
          "type": "address"
        },
        {
          "indexed": true,
          "internalType": "address",
          "name": "approved",
          "type": "address"
        },
        {
          "indexed": true,
          "internalType": "uint256",
          "name": "tokenId",
          "type": "uint256"
        }
      ],
      "name": "Approval",
      "type": "event"
    },
    {
      "anonymous": false,
      "inputs": [
        {
          "indexed": true,
          "internalType": "address",
          "name": "owner",
          "type": "address"
        },
        {
          "indexed": true,
          "internalType": "address",
          "name": "operator",
          "type": "address"
        },
        {
          "indexed": false,
          "internalType": "bool",
          "name": "approved",
          "type": "bool"
        }
      ],
      "name": "ApprovalForAll",
      "type": "event"
    },
    {
      "anonymous": false,
      "inputs": [
        {
          "indexed": false,
          "internalType": "uint256",
          "name": "_fromTokenId",
          "type": "uint256"
        },
        {
          "indexed": false,
          "internalType": "uint256",
          "name": "_toTokenId",
          "type": "uint256"
        }
      ],
      "name": "BatchMetadataUpdate",
      "type": "event"
    },
    {
      "anonymous": false,
      "inputs": [
        {
          "indexed": false,
          "internalType": "uint256",
          "name": "_tokenId",
          "type": "uint256"
        }
      ],
      "name": "MetadataUpdate",
      "type": "event"
    },
    {
      "anonymous": false,
      "inputs": [
        {
          "indexed": true,
          "internalType": "address",
          "name": "previousOwner",
          "type": "address"
        },
        {
          "indexed": true,
          "internalType": "address",
          "name": "newOwner",
          "type": "address"
        }
      ],
      "name": "OwnershipTransferred",
      "type": "event"
    },
    {
      "anonymous": false,
      "inputs": [
        {
          "indexed": true,
          "internalType": "address",
          "name": "from",
          "type": "address"
        },
        {
          "indexed": true,
          "internalType": "address",
          "name": "to",
          "type": "address"
        },
        {
          "indexed": true,
          "internalType": "uint256",
          "name": "tokenId",
          "type": "uint256"
        }
      ],
      "name": "Transfer",
      "type": "event"
    },
    {
      "inputs": [
        {
          "internalType": "uint256",
          "name": "",
          "type": "uint256"
        }
      ],
      "name": "IsSale",
      "outputs": [
        {
          "internalType": "bool",
          "name": "",
          "type": "bool"
        }
      ],
      "stateMutability": "view",
      "type": "function"
    },
    {
      "inputs": [
        {
          "internalType": "address",
          "name": "to",
          "type": "address"
        },
        {
          "internalType": "uint256",
          "name": "tokenId",
          "type": "uint256"
        }
      ],
      "name": "approve",
      "outputs": [],
      "stateMutability": "nonpayable",
      "type": "function"
    },
    {
      "inputs": [
        {
          "internalType": "address",
          "name": "owner",
          "type": "address"
        }
      ],
      "name": "balanceOf",
      "outputs": [
        {
          "internalType": "uint256",
          "name": "",
          "type": "uint256"
        }
      ],
      "stateMutability": "view",
      "type": "function"
    },
    {
      "inputs": [
        {
          "internalType": "uint256",
          "name": "_tokenId",
          "type": "uint256"
        }
      ],
      "name": "buyNFT",
      "outputs": [],
      "stateMutability": "nonpayable",
      "type": "function"
    },
    {
      "inputs": [],
      "name": "getAllNftList",
      "outputs": [
        {
          "components": [
            {
              "internalType": "uint256",
              "name": "tokenId",
              "type": "uint256"
            },
            {
              "internalType": "string",
              "name": "tokenURI",
              "type": "string"
            },
            {
              "internalType": "uint256",
              "name": "price",
              "type": "uint256"
            }
          ],
          "internalType": "struct DH721.NFTdata[]",
          "name": "",
          "type": "tuple[]"
        }
      ],
      "stateMutability": "view",
      "type": "function"
    },
    {
      "inputs": [
        {
          "internalType": "uint256",
          "name": "tokenId",
          "type": "uint256"
        }
      ],
      "name": "getApproved",
      "outputs": [
        {
          "internalType": "address",
          "name": "",
          "type": "address"
        }
      ],
      "stateMutability": "view",
      "type": "function"
    },
    {
      "inputs": [
        {
          "internalType": "address",
          "name": "_owner",
          "type": "address"
        }
      ],
      "name": "getNftOwnerList",
      "outputs": [
        {
          "components": [
            {
              "internalType": "uint256",
              "name": "tokenId",
              "type": "uint256"
            },
            {
              "internalType": "string",
              "name": "tokenURI",
              "type": "string"
            },
            {
              "internalType": "uint256",
              "name": "price",
              "type": "uint256"
            }
          ],
          "internalType": "struct DH721.NFTdata[]",
          "name": "",
          "type": "tuple[]"
        }
      ],
      "stateMutability": "view",
      "type": "function"
    },
    {
      "inputs": [],
      "name": "getSaleAllNftList",
      "outputs": [
        {
          "components": [
            {
              "internalType": "uint256",
              "name": "tokenId",
              "type": "uint256"
            },
            {
              "internalType": "string",
              "name": "tokenURI",
              "type": "string"
            },
            {
              "internalType": "uint256",
              "name": "price",
              "type": "uint256"
            }
          ],
          "internalType": "struct DH721.NFTdata[]",
          "name": "",
          "type": "tuple[]"
        }
      ],
      "stateMutability": "view",
      "type": "function"
    },
    {
      "inputs": [
        {
          "internalType": "address",
          "name": "_owner",
          "type": "address"
        }
      ],
      "name": "getSaleOwnerNftList",
      "outputs": [
        {
          "components": [
            {
              "internalType": "uint256",
              "name": "tokenId",
              "type": "uint256"
            },
            {
              "internalType": "string",
              "name": "tokenURI",
              "type": "string"
            },
            {
              "internalType": "uint256",
              "name": "price",
              "type": "uint256"
            }
          ],
          "internalType": "struct DH721.NFTdata[]",
          "name": "",
          "type": "tuple[]"
        }
      ],
      "stateMutability": "view",
      "type": "function"
    },
    {
      "inputs": [
        {
          "internalType": "address",
          "name": "owner",
          "type": "address"
        },
        {
          "internalType": "address",
          "name": "operator",
          "type": "address"
        }
      ],
      "name": "isApprovedForAll",
      "outputs": [
        {
          "internalType": "bool",
          "name": "",
          "type": "bool"
        }
      ],
      "stateMutability": "view",
      "type": "function"
    },
    {
      "inputs": [
        {
          "internalType": "address",
          "name": "_recipient",
          "type": "address"
        },
        {
          "internalType": "string",
          "name": "_tokenURI",
          "type": "string"
        },
        {
          "internalType": "uint256",
          "name": "_price",
          "type": "uint256"
        }
      ],
      "name": "mintNFT",
      "outputs": [
        {
          "internalType": "uint256",
          "name": "",
          "type": "uint256"
        },
        {
          "internalType": "uint256",
          "name": "",
          "type": "uint256"
        }
      ],
      "stateMutability": "nonpayable",
      "type": "function"
    },
    {
      "inputs": [],
      "name": "name",
      "outputs": [
        {
          "internalType": "string",
          "name": "",
          "type": "string"
        }
      ],
      "stateMutability": "view",
      "type": "function"
    },
    {
      "inputs": [
        {
          "internalType": "uint256",
          "name": "",
          "type": "uint256"
        }
      ],
      "name": "nftPrice",
      "outputs": [
        {
          "internalType": "uint256",
          "name": "",
          "type": "uint256"
        }
      ],
      "stateMutability": "view",
      "type": "function"
    },
    {
      "inputs": [],
      "name": "owner",
      "outputs": [
        {
          "internalType": "address",
          "name": "",
          "type": "address"
        }
      ],
      "stateMutability": "view",
      "type": "function"
    },
    {
      "inputs": [
        {
          "internalType": "uint256",
          "name": "tokenId",
          "type": "uint256"
        }
      ],
      "name": "ownerOf",
      "outputs": [
        {
          "internalType": "address",
          "name": "",
          "type": "address"
        }
      ],
      "stateMutability": "view",
      "type": "function"
    },
    {
      "inputs": [],
      "name": "renounceOwnership",
      "outputs": [],
      "stateMutability": "nonpayable",
      "type": "function"
    },
    {
      "inputs": [
        {
          "internalType": "address",
          "name": "from",
          "type": "address"
        },
        {
          "internalType": "address",
          "name": "to",
          "type": "address"
        },
        {
          "internalType": "uint256",
          "name": "tokenId",
          "type": "uint256"
        }
      ],
      "name": "safeTransferFrom",
      "outputs": [],
      "stateMutability": "nonpayable",
      "type": "function"
    },
    {
      "inputs": [
        {
          "internalType": "address",
          "name": "from",
          "type": "address"
        },
        {
          "internalType": "address",
          "name": "to",
          "type": "address"
        },
        {
          "internalType": "uint256",
          "name": "tokenId",
          "type": "uint256"
        },
        {
          "internalType": "bytes",
          "name": "data",
          "type": "bytes"
        }
      ],
      "name": "safeTransferFrom",
      "outputs": [],
      "stateMutability": "nonpayable",
      "type": "function"
    },
    {
      "inputs": [
        {
          "internalType": "uint256",
          "name": "_tokenId",
          "type": "uint256"
        },
        {
          "internalType": "uint256",
          "name": "_price",
          "type": "uint256"
        }
      ],
      "name": "saleNFT",
      "outputs": [],
      "stateMutability": "nonpayable",
      "type": "function"
    },
    {
      "inputs": [
        {
          "internalType": "address",
          "name": "operator",
          "type": "address"
        },
        {
          "internalType": "bool",
          "name": "approved",
          "type": "bool"
        }
      ],
      "name": "setApprovalForAll",
      "outputs": [],
      "stateMutability": "nonpayable",
      "type": "function"
    },
    {
      "inputs": [
        {
          "internalType": "address",
          "name": "_tokenAddress",
          "type": "address"
        }
      ],
      "name": "setToken",
      "outputs": [
        {
          "internalType": "bool",
          "name": "",
          "type": "bool"
        }
      ],
      "stateMutability": "nonpayable",
      "type": "function"
    },
    {
      "inputs": [
        {
          "internalType": "bytes4",
          "name": "interfaceId",
          "type": "bytes4"
        }
      ],
      "name": "supportsInterface",
      "outputs": [
        {
          "internalType": "bool",
          "name": "",
          "type": "bool"
        }
      ],
      "stateMutability": "view",
      "type": "function"
    },
    {
      "inputs": [],
      "name": "symbol",
      "outputs": [
        {
          "internalType": "string",
          "name": "",
          "type": "string"
        }
      ],
      "stateMutability": "view",
      "type": "function"
    },
    {
      "inputs": [
        {
          "internalType": "uint256",
          "name": "index",
          "type": "uint256"
        }
      ],
      "name": "tokenByIndex",
      "outputs": [
        {
          "internalType": "uint256",
          "name": "",
          "type": "uint256"
        }
      ],
      "stateMutability": "view",
      "type": "function"
    },
    {
      "inputs": [
        {
          "internalType": "address",
          "name": "owner",
          "type": "address"
        },
        {
          "internalType": "uint256",
          "name": "index",
          "type": "uint256"
        }
      ],
      "name": "tokenOfOwnerByIndex",
      "outputs": [
        {
          "internalType": "uint256",
          "name": "",
          "type": "uint256"
        }
      ],
      "stateMutability": "view",
      "type": "function"
    },
    {
      "inputs": [
        {
          "internalType": "uint256",
          "name": "_tokenId",
          "type": "uint256"
        }
      ],
      "name": "tokenURI",
      "outputs": [
        {
          "internalType": "string",
          "name": "",
          "type": "string"
        }
      ],
      "stateMutability": "view",
      "type": "function"
    },
    {
      "inputs": [],
      "name": "totalSupply",
      "outputs": [
        {
          "internalType": "uint256",
          "name": "",
          "type": "uint256"
        }
      ],
      "stateMutability": "view",
      "type": "function"
    },
    {
      "inputs": [
        {
          "internalType": "address",
          "name": "from",
          "type": "address"
        },
        {
          "internalType": "address",
          "name": "to",
          "type": "address"
        },
        {
          "internalType": "uint256",
          "name": "tokenId",
          "type": "uint256"
        }
      ],
      "name": "transferFrom",
      "outputs": [],
      "stateMutability": "nonpayable",
      "type": "function"
    },
    {
      "inputs": [
        {
          "internalType": "address",
          "name": "newOwner",
          "type": "address"
        }
      ],
      "name": "transferOwnership",
      "outputs": [],
      "stateMutability": "nonpayable",
      "type": "function"
    }
  ],
  "bytecode": "0x60806040526040518060400160405280600581526020017f44484e46540000000000000000000000000000000000000000000000000000008152506040518060400160405280600381526020017f4e46540000000000000000000000000000000000000000000000000000000000815250816000908162000081919062000404565b50806001908162000093919062000404565b505050620000b6620000aa620000bc60201b60201c565b620000c460201b60201c565b620004eb565b600033905090565b6000600760009054906101000a900473ffffffffffffffffffffffffffffffffffffffff16905081600760006101000a81548173ffffffffffffffffffffffffffffffffffffffff021916908373ffffffffffffffffffffffffffffffffffffffff1602179055508173ffffffffffffffffffffffffffffffffffffffff168173ffffffffffffffffffffffffffffffffffffffff167f8be0079c531659141344cd1fd0a4f28419497f9722a3daafe3b4186f6b6457e060405160405180910390a35050565b600081519050919050565b7f4e487b7100000000000000000000000000000000000000000000000000000000600052604160045260246000fd5b7f4e487b7100000000000000000000000000000000000000000000000000000000600052602260045260246000fd5b600060028204905060018216806200020c57607f821691505b602082108103620002225762000221620001c4565b5b50919050565b60008190508160005260206000209050919050565b60006020601f8301049050919050565b600082821b905092915050565b6000600883026200028c7fffffffffffffffffffffffffffffffffffffffffffffffffffffffffffffffff826200024d565b6200029886836200024d565b95508019841693508086168417925050509392505050565b6000819050919050565b6000819050919050565b6000620002e5620002df620002d984620002b0565b620002ba565b620002b0565b9050919050565b6000819050919050565b6200030183620002c4565b620003196200031082620002ec565b8484546200025a565b825550505050565b600090565b6200033062000321565b6200033d818484620002f6565b505050565b5b8181101562000365576200035960008262000326565b60018101905062000343565b5050565b601f821115620003b4576200037e8162000228565b62000389846200023d565b8101602085101562000399578190505b620003b1620003a8856200023d565b83018262000342565b50505b505050565b600082821c905092915050565b6000620003d960001984600802620003b9565b1980831691505092915050565b6000620003f48383620003c6565b9150826002028217905092915050565b6200040f826200018a565b67ffffffffffffffff8111156200042b576200042a62000195565b5b620004378254620001f3565b6200044482828562000369565b600060209050601f8311600181146200047c576000841562000467578287015190505b620004738582620003e6565b865550620004e3565b601f1984166200048c8662000228565b60005b82811015620004b6578489015182556001820191506020850194506020810190506200048f565b86831015620004d65784890151620004d2601f891682620003c6565b8355505b6001600288020188555050505b505050505050565b61488080620004fb6000396000f3fe608060405234801561001057600080fd5b50600436106101cf5760003560e01c80636352211e116101045780639db824b8116100a2578063cbdb37b211610071578063cbdb37b214610579578063df7a5a1014610597578063e985e9c5146105c7578063f2fde38b146105f7576101cf565b80639db824b8146104e1578063a22cb46514610511578063b88d4fde1461052d578063c87b56dd14610549576101cf565b8063715018a6116100de578063715018a61461047d5780638da5cb5b1461048757806395d89b41146104a55780639b934b52146104c3576101cf565b80636352211e146103ed5780636de299141461041d57806370a082311461044d576101cf565b806323b872dd116101715780632f745c591161014b5780632f745c591461035557806342842e0e146103855780634f6ccce7146103a157806351ed8288146103d1576101cf565b806323b872dd146102ed57806326d8fde2146103095780632d1edec914610325576101cf565b806308598df0116101ad57806308598df014610252578063095ea7b314610283578063144fa6d71461029f57806318160ddd146102cf576101cf565b806301ffc9a7146101d457806306fdde0314610204578063081812fc14610222575b600080fd5b6101ee60048036038101906101e99190612ee1565b610613565b6040516101fb9190612f29565b60405180910390f35b61020c610625565b6040516102199190612fd4565b60405180910390f35b61023c6004803603810190610237919061302c565b6106b7565b604051610249919061309a565b60405180910390f35b61026c60048036038101906102679190613216565b6106fd565b60405161027a929190613294565b60405180910390f35b61029d600480360381019061029891906132bd565b61079c565b005b6102b960048036038101906102b491906132fd565b6108b3565b6040516102c69190612f29565b60405180910390f35b6102d7610940565b6040516102e4919061332a565b60405180910390f35b61030760048036038101906103029190613345565b61094d565b005b610323600480360381019061031e9190613398565b6109ad565b005b61033f600480360381019061033a919061302c565b6109f5565b60405161034c9190612f29565b60405180910390f35b61036f600480360381019061036a91906132bd565b610a15565b60405161037c919061332a565b60405180910390f35b61039f600480360381019061039a9190613345565b610aba565b005b6103bb60048036038101906103b6919061302c565b610ada565b6040516103c8919061332a565b60405180910390f35b6103eb60048036038101906103e6919061302c565b610b4b565b005b6104076004803603810190610402919061302c565b610e7b565b604051610414919061309a565b60405180910390f35b6104376004803603810190610432919061302c565b610f01565b604051610444919061332a565b60405180910390f35b610467600480360381019061046291906132fd565b610f19565b604051610474919061332a565b60405180910390f35b610485610fd0565b005b61048f610fe4565b60405161049c919061309a565b60405180910390f35b6104ad61100e565b6040516104ba9190612fd4565b60405180910390f35b6104cb6110a0565b6040516104d89190613543565b60405180910390f35b6104fb60048036038101906104f691906132fd565b6111a1565b6040516105089190613543565b60405180910390f35b61052b60048036038101906105269190613591565b611324565b005b61054760048036038101906105429190613672565b61133a565b005b610563600480360381019061055e919061302c565b61139c565b6040516105709190612fd4565b60405180910390f35b6105816113ae565b60405161058e9190613543565b60405180910390f35b6105b160048036038101906105ac91906132fd565b611530565b6040516105be9190613543565b60405180910390f35b6105e160048036038101906105dc91906136f5565b61162f565b6040516105ee9190612f29565b60405180910390f35b610611600480360381019061060c91906132fd565b6116c3565b005b600061061e82611746565b9050919050565b60606000805461063490613764565b80601f016020809104026020016040519081016040528092919081815260200182805461066090613764565b80156106ad5780601f10610682576101008083540402835291602001916106ad565b820191906000526020600020905b81548152906001019060200180831161069057829003601f168201915b5050505050905090565b60006106c2826117c0565b6004600083815260200190815260200160002060009054906101000a900473ffffffffffffffffffffffffffffffffffffffff169050919050565b60008061070a600c61180b565b6000610716600c611821565b9050610722868261182f565b61072c308261079c565b6107368186611a4c565b83600e6000838152602001908152602001600020819055506000600f600083815260200190815260200160002060006101000a81548160ff02191690831515021790555080600e6000838152602001908152602001600020549250925050935093915050565b60006107a782610e7b565b90508073ffffffffffffffffffffffffffffffffffffffff168373ffffffffffffffffffffffffffffffffffffffff1603610817576040517f08c379a000000000000000000000000000000000000000000000000000000000815260040161080e90613807565b60405180910390fd5b8073ffffffffffffffffffffffffffffffffffffffff16610836611af0565b73ffffffffffffffffffffffffffffffffffffffff16148061086557506108648161085f611af0565b61162f565b5b6108a4576040517f08c379a000000000000000000000000000000000000000000000000000000000815260040161089b90613899565b60405180910390fd5b6108ae8383611af8565b505050565b60006108bd611bb1565b600073ffffffffffffffffffffffffffffffffffffffff168273ffffffffffffffffffffffffffffffffffffffff16036108f657600080fd5b81600d60006101000a81548173ffffffffffffffffffffffffffffffffffffffff021916908373ffffffffffffffffffffffffffffffffffffffff16021790555060019050919050565b6000600a80549050905090565b61095e610958611af0565b82611c2f565b61099d576040517f08c379a00000000000000000000000000000000000000000000000000000000081526004016109949061392b565b60405180910390fd5b6109a8838383611cc4565b505050565b6001600f600084815260200190815260200160002060006101000a81548160ff02191690831515021790555080600e6000848152602001908152602001600020819055505050565b600f6020528060005260406000206000915054906101000a900460ff1681565b6000610a2083610f19565b8210610a61576040517f08c379a0000000000000000000000000000000000000000000000000000000008152600401610a58906139bd565b60405180910390fd5b600860008473ffffffffffffffffffffffffffffffffffffffff1673ffffffffffffffffffffffffffffffffffffffff168152602001908152602001600020600083815260200190815260200160002054905092915050565b610ad58383836040518060200160405280600081525061133a565b505050565b6000610ae4610940565b8210610b25576040517f08c379a0000000000000000000000000000000000000000000000000000000008152600401610b1c90613a4f565b60405180910390fd5b600a8281548110610b3957610b38613a6f565b5b90600052602060002001549050919050565b60011515600f600083815260200190815260200160002060009054906101000a900460ff16151514610bb2576040517f08c379a0000000000000000000000000000000000000000000000000000000008152600401610ba990613aea565b60405180910390fd5b6000600e600083815260200190815260200160002054905060008111610c0d576040517f08c379a0000000000000000000000000000000000000000000000000000000008152600401610c0490613b56565b60405180910390fd5b80600d60009054906101000a900473ffffffffffffffffffffffffffffffffffffffff1673ffffffffffffffffffffffffffffffffffffffff1663dd62ed3e33306040518363ffffffff1660e01b8152600401610c6b929190613b76565b602060405180830381865afa158015610c88573d6000803e3d6000fd5b505050506040513d601f19601f82011682018060405250810190610cac9190613bb4565b1015610ced576040517f08c379a0000000000000000000000000000000000000000000000000000000008152600401610ce490613c2d565b60405180910390fd5b6000610cf883610e7b565b9050600d60009054906101000a900473ffffffffffffffffffffffffffffffffffffffff1673ffffffffffffffffffffffffffffffffffffffff166323b872dd3383856040518463ffffffff1660e01b8152600401610d5993929190613c4d565b6020604051808303816000875af1158015610d78573d6000803e3d6000fd5b505050506040513d601f19601f82011682018060405250810190610d9c9190613c99565b610ddb576040517f08c379a0000000000000000000000000000000000000000000000000000000008152600401610dd290613d12565b60405180910390fd5b3073ffffffffffffffffffffffffffffffffffffffff166342842e0e8233866040518463ffffffff1660e01b8152600401610e1893929190613c4d565b600060405180830381600087803b158015610e3257600080fd5b505af1158015610e46573d6000803e3d6000fd5b505050506000600f600085815260200190815260200160002060006101000a81548160ff021916908315150217905550505050565b600080610e8783611fbd565b9050600073ffffffffffffffffffffffffffffffffffffffff168173ffffffffffffffffffffffffffffffffffffffff1603610ef8576040517f08c379a0000000000000000000000000000000000000000000000000000000008152600401610eef90613d7e565b60405180910390fd5b80915050919050565b600e6020528060005260406000206000915090505481565b60008073ffffffffffffffffffffffffffffffffffffffff168273ffffffffffffffffffffffffffffffffffffffff1603610f89576040517f08c379a0000000000000000000000000000000000000000000000000000000008152600401610f8090613e10565b60405180910390fd5b600360008373ffffffffffffffffffffffffffffffffffffffff1673ffffffffffffffffffffffffffffffffffffffff168152602001908152602001600020549050919050565b610fd8611bb1565b610fe26000611ffa565b565b6000600760009054906101000a900473ffffffffffffffffffffffffffffffffffffffff16905090565b60606001805461101d90613764565b80601f016020809104026020016040519081016040528092919081815260200182805461104990613764565b80156110965780601f1061106b57610100808354040283529160200191611096565b820191906000526020600020905b81548152906001019060200180831161107957829003601f168201915b5050505050905090565b606060006110ae600c611821565b905060008167ffffffffffffffff8111156110cc576110cb6130eb565b5b60405190808252806020026020018201604052801561110557816020015b6110f2612e54565b8152602001906001900390816110ea5790505b50905060005b828110156111985760006001826111229190613e5f565b9050600061112f8261139c565b90506000600e600084815260200190815260200160002054905060405180606001604052808481526020018381526020018281525085858151811061117757611176613a6f565b5b6020026020010181905250505050808061119090613e93565b91505061110b565b50809250505090565b606060006111ae83610f19565b9050600080600190505b82811161120757600f600082815260200190815260200160002060009054906101000a900460ff16156111f45781806111f090613e93565b9250505b80806111ff90613e93565b9150506111b8565b5060008167ffffffffffffffff811115611224576112236130eb565b5b60405190808252806020026020018201604052801561125d57816020015b61124a612e54565b8152602001906001900390816112425790505b509050600080600190505b84811161131757600f600082815260200190815260200160002060009054906101000a900460ff16156113045760006112a08261139c565b90506000600e60008481526020019081526020016000205490506040518060600160405280848152602001838152602001828152508585815181106112e8576112e7613a6f565b5b602002602001018190525083806112fe90613e93565b94505050505b808061130f90613e93565b915050611268565b5081945050505050919050565b61133661132f611af0565b83836120c0565b5050565b61134b611345611af0565b83611c2f565b61138a576040517f08c379a00000000000000000000000000000000000000000000000000000000081526004016113819061392b565b60405180910390fd5b6113968484848461222c565b50505050565b60606113a782612288565b9050919050565b606060006113bc600c611821565b9050600080600190505b82811161141557600f600082815260200190815260200160002060009054906101000a900460ff16156114025781806113fe90613e93565b9250505b808061140d90613e93565b9150506113c6565b5060008167ffffffffffffffff811115611432576114316130eb565b5b60405190808252806020026020018201604052801561146b57816020015b611458612e54565b8152602001906001900390816114505790505b509050600080600190505b84811161152557600f600082815260200190815260200160002060009054906101000a900460ff16156115125760006114ae8261139c565b90506000600e60008481526020019081526020016000205490506040518060600160405280848152602001838152602001828152508585815181106114f6576114f5613a6f565b5b6020026020010181905250838061150c90613e93565b94505050505b808061151d90613e93565b915050611476565b508194505050505090565b6060600061153d83610f19565b905060008167ffffffffffffffff81111561155b5761155a6130eb565b5b60405190808252806020026020018201604052801561159457816020015b611581612e54565b8152602001906001900390816115795790505b50905060005b828110156116245760006115ae8683610a15565b905060006115bb8261139c565b90506000600e600084815260200190815260200160002054905060405180606001604052808481526020018381526020018281525085858151811061160357611602613a6f565b5b6020026020010181905250505050808061161c90613e93565b91505061159a565b508092505050919050565b6000600560008473ffffffffffffffffffffffffffffffffffffffff1673ffffffffffffffffffffffffffffffffffffffff16815260200190815260200160002060008373ffffffffffffffffffffffffffffffffffffffff1673ffffffffffffffffffffffffffffffffffffffff16815260200190815260200160002060009054906101000a900460ff16905092915050565b6116cb611bb1565b600073ffffffffffffffffffffffffffffffffffffffff168173ffffffffffffffffffffffffffffffffffffffff160361173a576040517f08c379a000000000000000000000000000000000000000000000000000000000815260040161173190613f4d565b60405180910390fd5b61174381611ffa565b50565b60007f780e9d63000000000000000000000000000000000000000000000000000000007bffffffffffffffffffffffffffffffffffffffffffffffffffffffff1916827bffffffffffffffffffffffffffffffffffffffffffffffffffffffff191614806117b957506117b88261239a565b5b9050919050565b6117c9816123fb565b611808576040517f08c379a00000000000000000000000000000000000000000000000000000000081526004016117ff90613d7e565b60405180910390fd5b50565b6001816000016000828254019250508190555050565b600081600001549050919050565b600073ffffffffffffffffffffffffffffffffffffffff168273ffffffffffffffffffffffffffffffffffffffff160361189e576040517f08c379a000000000000000000000000000000000000000000000000000000000815260040161189590613fb9565b60405180910390fd5b6118a7816123fb565b156118e7576040517f08c379a00000000000000000000000000000000000000000000000000000000081526004016118de90614025565b60405180910390fd5b6118f560008383600161243c565b6118fe816123fb565b1561193e576040517f08c379a000000000000000000000000000000000000000000000000000000000815260040161193590614025565b60405180910390fd5b6001600360008473ffffffffffffffffffffffffffffffffffffffff1673ffffffffffffffffffffffffffffffffffffffff16815260200190815260200160002060008282540192505081905550816002600083815260200190815260200160002060006101000a81548173ffffffffffffffffffffffffffffffffffffffff021916908373ffffffffffffffffffffffffffffffffffffffff160217905550808273ffffffffffffffffffffffffffffffffffffffff16600073ffffffffffffffffffffffffffffffffffffffff167fddf252ad1be2c89b69c2b068fc378daa952ba7f163c4a11628f55a4df523b3ef60405160405180910390a4611a4860008383600161244e565b5050565b611a55826123fb565b611a94576040517f08c379a0000000000000000000000000000000000000000000000000000000008152600401611a8b906140b7565b60405180910390fd5b80600660008481526020019081526020016000209081611ab49190614283565b507ff8e1a15aba9398e019f0b49df1a4fde98ee17ae345cb5f6b5e2c27f5033e8ce782604051611ae4919061332a565b60405180910390a15050565b600033905090565b816004600083815260200190815260200160002060006101000a81548173ffffffffffffffffffffffffffffffffffffffff021916908373ffffffffffffffffffffffffffffffffffffffff160217905550808273ffffffffffffffffffffffffffffffffffffffff16611b6b83610e7b565b73ffffffffffffffffffffffffffffffffffffffff167f8c5be1e5ebec7d5bd14f71427d1e84f3dd0314c0f7b2291e5b200ac8c7c3b92560405160405180910390a45050565b611bb9611af0565b73ffffffffffffffffffffffffffffffffffffffff16611bd7610fe4565b73ffffffffffffffffffffffffffffffffffffffff1614611c2d576040517f08c379a0000000000000000000000000000000000000000000000000000000008152600401611c24906143a1565b60405180910390fd5b565b600080611c3b83610e7b565b90508073ffffffffffffffffffffffffffffffffffffffff168473ffffffffffffffffffffffffffffffffffffffff161480611c7d5750611c7c818561162f565b5b80611cbb57508373ffffffffffffffffffffffffffffffffffffffff16611ca3846106b7565b73ffffffffffffffffffffffffffffffffffffffff16145b91505092915050565b8273ffffffffffffffffffffffffffffffffffffffff16611ce482610e7b565b73ffffffffffffffffffffffffffffffffffffffff1614611d3a576040517f08c379a0000000000000000000000000000000000000000000000000000000008152600401611d3190614433565b60405180910390fd5b600073ffffffffffffffffffffffffffffffffffffffff168273ffffffffffffffffffffffffffffffffffffffff1603611da9576040517f08c379a0000000000000000000000000000000000000000000000000000000008152600401611da0906144c5565b60405180910390fd5b611db6838383600161243c565b8273ffffffffffffffffffffffffffffffffffffffff16611dd682610e7b565b73ffffffffffffffffffffffffffffffffffffffff1614611e2c576040517f08c379a0000000000000000000000000000000000000000000000000000000008152600401611e2390614433565b60405180910390fd5b6004600082815260200190815260200160002060006101000a81549073ffffffffffffffffffffffffffffffffffffffff02191690556001600360008573ffffffffffffffffffffffffffffffffffffffff1673ffffffffffffffffffffffffffffffffffffffff168152602001908152602001600020600082825403925050819055506001600360008473ffffffffffffffffffffffffffffffffffffffff1673ffffffffffffffffffffffffffffffffffffffff16815260200190815260200160002060008282540192505081905550816002600083815260200190815260200160002060006101000a81548173ffffffffffffffffffffffffffffffffffffffff021916908373ffffffffffffffffffffffffffffffffffffffff160217905550808273ffffffffffffffffffffffffffffffffffffffff168473ffffffffffffffffffffffffffffffffffffffff167fddf252ad1be2c89b69c2b068fc378daa952ba7f163c4a11628f55a4df523b3ef60405160405180910390a4611fb8838383600161244e565b505050565b60006002600083815260200190815260200160002060009054906101000a900473ffffffffffffffffffffffffffffffffffffffff169050919050565b6000600760009054906101000a900473ffffffffffffffffffffffffffffffffffffffff16905081600760006101000a81548173ffffffffffffffffffffffffffffffffffffffff021916908373ffffffffffffffffffffffffffffffffffffffff1602179055508173ffffffffffffffffffffffffffffffffffffffff168173ffffffffffffffffffffffffffffffffffffffff167f8be0079c531659141344cd1fd0a4f28419497f9722a3daafe3b4186f6b6457e060405160405180910390a35050565b8173ffffffffffffffffffffffffffffffffffffffff168373ffffffffffffffffffffffffffffffffffffffff160361212e576040517f08c379a000000000000000000000000000000000000000000000000000000000815260040161212590614531565b60405180910390fd5b80600560008573ffffffffffffffffffffffffffffffffffffffff1673ffffffffffffffffffffffffffffffffffffffff16815260200190815260200160002060008473ffffffffffffffffffffffffffffffffffffffff1673ffffffffffffffffffffffffffffffffffffffff16815260200190815260200160002060006101000a81548160ff0219169083151502179055508173ffffffffffffffffffffffffffffffffffffffff168373ffffffffffffffffffffffffffffffffffffffff167f17307eab39ab6107e8899845ad3d59bd9653f200f220920489ca2b5937696c318360405161221f9190612f29565b60405180910390a3505050565b612237848484611cc4565b61224384848484612454565b612282576040517f08c379a0000000000000000000000000000000000000000000000000000000008152600401612279906145c3565b60405180910390fd5b50505050565b6060612293826117c0565b60006006600084815260200190815260200160002080546122b390613764565b80601f01602080910402602001604051908101604052809291908181526020018280546122df90613764565b801561232c5780601f106123015761010080835404028352916020019161232c565b820191906000526020600020905b81548152906001019060200180831161230f57829003601f168201915b50505050509050600061233d6125db565b90506000815103612352578192505050612395565b60008251111561238757808260405160200161236f92919061461f565b60405160208183030381529060405292505050612395565b612390846125f2565b925050505b919050565b6000634906490660e01b7bffffffffffffffffffffffffffffffffffffffffffffffffffffffff1916827bffffffffffffffffffffffffffffffffffffffffffffffffffffffff191614806123f457506123f38261265a565b5b9050919050565b60008073ffffffffffffffffffffffffffffffffffffffff1661241d83611fbd565b73ffffffffffffffffffffffffffffffffffffffff1614159050919050565b6124488484848461273c565b50505050565b50505050565b60006124758473ffffffffffffffffffffffffffffffffffffffff1661289a565b156125ce578373ffffffffffffffffffffffffffffffffffffffff1663150b7a0261249e611af0565b8786866040518563ffffffff1660e01b81526004016124c09493929190614698565b6020604051808303816000875af19250505080156124fc57506040513d601f19601f820116820180604052508101906124f991906146f9565b60015b61257e573d806000811461252c576040519150601f19603f3d011682016040523d82523d6000602084013e612531565b606091505b506000815103612576576040517f08c379a000000000000000000000000000000000000000000000000000000000815260040161256d906145c3565b60405180910390fd5b805181602001fd5b63150b7a0260e01b7bffffffffffffffffffffffffffffffffffffffffffffffffffffffff1916817bffffffffffffffffffffffffffffffffffffffffffffffffffffffff1916149150506125d3565b600190505b949350505050565b606060405180602001604052806000815250905090565b60606125fd826117c0565b60006126076125db565b905060008151116126275760405180602001604052806000815250612652565b80612631846128bd565b60405160200161264292919061461f565b6040516020818303038152906040525b915050919050565b60007f80ac58cd000000000000000000000000000000000000000000000000000000007bffffffffffffffffffffffffffffffffffffffffffffffffffffffff1916827bffffffffffffffffffffffffffffffffffffffffffffffffffffffff1916148061272557507f5b5e139f000000000000000000000000000000000000000000000000000000007bffffffffffffffffffffffffffffffffffffffffffffffffffffffff1916827bffffffffffffffffffffffffffffffffffffffffffffffffffffffff1916145b8061273557506127348261298b565b5b9050919050565b612748848484846129f5565b600181111561278c576040517f08c379a000000000000000000000000000000000000000000000000000000000815260040161278390614798565b60405180910390fd5b6000829050600073ffffffffffffffffffffffffffffffffffffffff168573ffffffffffffffffffffffffffffffffffffffff16036127d3576127ce816129fb565b612812565b8373ffffffffffffffffffffffffffffffffffffffff168573ffffffffffffffffffffffffffffffffffffffff1614612811576128108582612a44565b5b5b600073ffffffffffffffffffffffffffffffffffffffff168473ffffffffffffffffffffffffffffffffffffffff16036128545761284f81612bb1565b612893565b8473ffffffffffffffffffffffffffffffffffffffff168473ffffffffffffffffffffffffffffffffffffffff1614612892576128918482612c82565b5b5b5050505050565b6000808273ffffffffffffffffffffffffffffffffffffffff163b119050919050565b6060600060016128cc84612d01565b01905060008167ffffffffffffffff8111156128eb576128ea6130eb565b5b6040519080825280601f01601f19166020018201604052801561291d5781602001600182028036833780820191505090505b509050600082602001820190505b600115612980578080600190039150507f3031323334353637383961626364656600000000000000000000000000000000600a86061a8153600a8581612974576129736147b8565b5b0494506000850361292b575b819350505050919050565b60007f01ffc9a7000000000000000000000000000000000000000000000000000000007bffffffffffffffffffffffffffffffffffffffffffffffffffffffff1916827bffffffffffffffffffffffffffffffffffffffffffffffffffffffff1916149050919050565b50505050565b600a80549050600b600083815260200190815260200160002081905550600a81908060018154018082558091505060019003906000526020600020016000909190919091505550565b60006001612a5184610f19565b612a5b91906147e7565b9050600060096000848152602001908152602001600020549050818114612b40576000600860008673ffffffffffffffffffffffffffffffffffffffff1673ffffffffffffffffffffffffffffffffffffffff168152602001908152602001600020600084815260200190815260200160002054905080600860008773ffffffffffffffffffffffffffffffffffffffff1673ffffffffffffffffffffffffffffffffffffffff168152602001908152602001600020600084815260200190815260200160002081905550816009600083815260200190815260200160002081905550505b6009600084815260200190815260200160002060009055600860008573ffffffffffffffffffffffffffffffffffffffff1673ffffffffffffffffffffffffffffffffffffffff16815260200190815260200160002060008381526020019081526020016000206000905550505050565b60006001600a80549050612bc591906147e7565b90506000600b60008481526020019081526020016000205490506000600a8381548110612bf557612bf4613a6f565b5b9060005260206000200154905080600a8381548110612c1757612c16613a6f565b5b906000526020600020018190555081600b600083815260200190815260200160002081905550600b600085815260200190815260200160002060009055600a805480612c6657612c6561481b565b5b6001900381819060005260206000200160009055905550505050565b6000612c8d83610f19565b905081600860008573ffffffffffffffffffffffffffffffffffffffff1673ffffffffffffffffffffffffffffffffffffffff168152602001908152602001600020600083815260200190815260200160002081905550806009600084815260200190815260200160002081905550505050565b600080600090507a184f03e93ff9f4daa797ed6e38ed64bf6a1f0100000000000000008310612d5f577a184f03e93ff9f4daa797ed6e38ed64bf6a1f0100000000000000008381612d5557612d546147b8565b5b0492506040810190505b6d04ee2d6d415b85acef81000000008310612d9c576d04ee2d6d415b85acef81000000008381612d9257612d916147b8565b5b0492506020810190505b662386f26fc100008310612dcb57662386f26fc100008381612dc157612dc06147b8565b5b0492506010810190505b6305f5e1008310612df4576305f5e1008381612dea57612de96147b8565b5b0492506008810190505b6127108310612e19576127108381612e0f57612e0e6147b8565b5b0492506004810190505b60648310612e3c5760648381612e3257612e316147b8565b5b0492506002810190505b600a8310612e4b576001810190505b80915050919050565b60405180606001604052806000815260200160608152602001600081525090565b6000604051905090565b600080fd5b600080fd5b60007fffffffff0000000000000000000000000000000000000000000000000000000082169050919050565b612ebe81612e89565b8114612ec957600080fd5b50565b600081359050612edb81612eb5565b92915050565b600060208284031215612ef757612ef6612e7f565b5b6000612f0584828501612ecc565b91505092915050565b60008115159050919050565b612f2381612f0e565b82525050565b6000602082019050612f3e6000830184612f1a565b92915050565b600081519050919050565b600082825260208201905092915050565b60005b83811015612f7e578082015181840152602081019050612f63565b60008484015250505050565b6000601f19601f8301169050919050565b6000612fa682612f44565b612fb08185612f4f565b9350612fc0818560208601612f60565b612fc981612f8a565b840191505092915050565b60006020820190508181036000830152612fee8184612f9b565b905092915050565b6000819050919050565b61300981612ff6565b811461301457600080fd5b50565b60008135905061302681613000565b92915050565b60006020828403121561304257613041612e7f565b5b600061305084828501613017565b91505092915050565b600073ffffffffffffffffffffffffffffffffffffffff82169050919050565b600061308482613059565b9050919050565b61309481613079565b82525050565b60006020820190506130af600083018461308b565b92915050565b6130be81613079565b81146130c957600080fd5b50565b6000813590506130db816130b5565b92915050565b600080fd5b600080fd5b7f4e487b7100000000000000000000000000000000000000000000000000000000600052604160045260246000fd5b61312382612f8a565b810181811067ffffffffffffffff82111715613142576131416130eb565b5b80604052505050565b6000613155612e75565b9050613161828261311a565b919050565b600067ffffffffffffffff821115613181576131806130eb565b5b61318a82612f8a565b9050602081019050919050565b82818337600083830152505050565b60006131b96131b484613166565b61314b565b9050828152602081018484840111156131d5576131d46130e6565b5b6131e0848285613197565b509392505050565b600082601f8301126131fd576131fc6130e1565b5b813561320d8482602086016131a6565b91505092915050565b60008060006060848603121561322f5761322e612e7f565b5b600061323d868287016130cc565b935050602084013567ffffffffffffffff81111561325e5761325d612e84565b5b61326a868287016131e8565b925050604061327b86828701613017565b9150509250925092565b61328e81612ff6565b82525050565b60006040820190506132a96000830185613285565b6132b66020830184613285565b9392505050565b600080604083850312156132d4576132d3612e7f565b5b60006132e2858286016130cc565b92505060206132f385828601613017565b9150509250929050565b60006020828403121561331357613312612e7f565b5b6000613321848285016130cc565b91505092915050565b600060208201905061333f6000830184613285565b92915050565b60008060006060848603121561335e5761335d612e7f565b5b600061336c868287016130cc565b935050602061337d868287016130cc565b925050604061338e86828701613017565b9150509250925092565b600080604083850312156133af576133ae612e7f565b5b60006133bd85828601613017565b92505060206133ce85828601613017565b9150509250929050565b600081519050919050565b600082825260208201905092915050565b6000819050602082019050919050565b61340d81612ff6565b82525050565b600082825260208201905092915050565b600061342f82612f44565b6134398185613413565b9350613449818560208601612f60565b61345281612f8a565b840191505092915050565b60006060830160008301516134756000860182613404565b506020830151848203602086015261348d8282613424565b91505060408301516134a26040860182613404565b508091505092915050565b60006134b9838361345d565b905092915050565b6000602082019050919050565b60006134d9826133d8565b6134e381856133e3565b9350836020820285016134f5856133f4565b8060005b85811015613531578484038952815161351285826134ad565b945061351d836134c1565b925060208a019950506001810190506134f9565b50829750879550505050505092915050565b6000602082019050818103600083015261355d81846134ce565b905092915050565b61356e81612f0e565b811461357957600080fd5b50565b60008135905061358b81613565565b92915050565b600080604083850312156135a8576135a7612e7f565b5b60006135b6858286016130cc565b92505060206135c78582860161357c565b9150509250929050565b600067ffffffffffffffff8211156135ec576135eb6130eb565b5b6135f582612f8a565b9050602081019050919050565b6000613615613610846135d1565b61314b565b905082815260208101848484011115613631576136306130e6565b5b61363c848285613197565b509392505050565b600082601f830112613659576136586130e1565b5b8135613669848260208601613602565b91505092915050565b6000806000806080858703121561368c5761368b612e7f565b5b600061369a878288016130cc565b94505060206136ab878288016130cc565b93505060406136bc87828801613017565b925050606085013567ffffffffffffffff8111156136dd576136dc612e84565b5b6136e987828801613644565b91505092959194509250565b6000806040838503121561370c5761370b612e7f565b5b600061371a858286016130cc565b925050602061372b858286016130cc565b9150509250929050565b7f4e487b7100000000000000000000000000000000000000000000000000000000600052602260045260246000fd5b6000600282049050600182168061377c57607f821691505b60208210810361378f5761378e613735565b5b50919050565b7f4552433732313a20617070726f76616c20746f2063757272656e74206f776e6560008201527f7200000000000000000000000000000000000000000000000000000000000000602082015250565b60006137f1602183612f4f565b91506137fc82613795565b604082019050919050565b60006020820190508181036000830152613820816137e4565b9050919050565b7f4552433732313a20617070726f76652063616c6c6572206973206e6f7420746f60008201527f6b656e206f776e6572206f7220617070726f76656420666f7220616c6c000000602082015250565b6000613883603d83612f4f565b915061388e82613827565b604082019050919050565b600060208201905081810360008301526138b281613876565b9050919050565b7f4552433732313a2063616c6c6572206973206e6f7420746f6b656e206f776e6560008201527f72206f7220617070726f76656400000000000000000000000000000000000000602082015250565b6000613915602d83612f4f565b9150613920826138b9565b604082019050919050565b6000602082019050818103600083015261394481613908565b9050919050565b7f455243373231456e756d657261626c653a206f776e657220696e646578206f7560008201527f74206f6620626f756e6473000000000000000000000000000000000000000000602082015250565b60006139a7602b83612f4f565b91506139b28261394b565b604082019050919050565b600060208201905081810360008301526139d68161399a565b9050919050565b7f455243373231456e756d657261626c653a20676c6f62616c20696e646578206f60008201527f7574206f6620626f756e64730000000000000000000000000000000000000000602082015250565b6000613a39602c83612f4f565b9150613a44826139dd565b604082019050919050565b60006020820190508181036000830152613a6881613a2c565b9050919050565b7f4e487b7100000000000000000000000000000000000000000000000000000000600052603260045260246000fd5b7f4973206e6f742053616c65000000000000000000000000000000000000000000600082015250565b6000613ad4600b83612f4f565b9150613adf82613a9e565b602082019050919050565b60006020820190508181036000830152613b0381613ac7565b9050919050565b7f496e76616c6964204e4654207072696365000000000000000000000000000000600082015250565b6000613b40601183612f4f565b9150613b4b82613b0a565b602082019050919050565b60006020820190508181036000830152613b6f81613b33565b9050919050565b6000604082019050613b8b600083018561308b565b613b98602083018461308b565b9392505050565b600081519050613bae81613000565b92915050565b600060208284031215613bca57613bc9612e7f565b5b6000613bd884828501613b9f565b91505092915050565b7f546f6b656e20616c6c6f77616e6365206e6f7420736574000000000000000000600082015250565b6000613c17601783612f4f565b9150613c2282613be1565b602082019050919050565b60006020820190508181036000830152613c4681613c0a565b9050919050565b6000606082019050613c62600083018661308b565b613c6f602083018561308b565b613c7c6040830184613285565b949350505050565b600081519050613c9381613565565b92915050565b600060208284031215613caf57613cae612e7f565b5b6000613cbd84828501613c84565b91505092915050565b7f546f6b656e207472616e73666572206661696c65640000000000000000000000600082015250565b6000613cfc601583612f4f565b9150613d0782613cc6565b602082019050919050565b60006020820190508181036000830152613d2b81613cef565b9050919050565b7f4552433732313a20696e76616c696420746f6b656e2049440000000000000000600082015250565b6000613d68601883612f4f565b9150613d7382613d32565b602082019050919050565b60006020820190508181036000830152613d9781613d5b565b9050919050565b7f4552433732313a2061646472657373207a65726f206973206e6f74206120766160008201527f6c6964206f776e65720000000000000000000000000000000000000000000000602082015250565b6000613dfa602983612f4f565b9150613e0582613d9e565b604082019050919050565b60006020820190508181036000830152613e2981613ded565b9050919050565b7f4e487b7100000000000000000000000000000000000000000000000000000000600052601160045260246000fd5b6000613e6a82612ff6565b9150613e7583612ff6565b9250828201905080821115613e8d57613e8c613e30565b5b92915050565b6000613e9e82612ff6565b91507fffffffffffffffffffffffffffffffffffffffffffffffffffffffffffffffff8203613ed057613ecf613e30565b5b600182019050919050565b7f4f776e61626c653a206e6577206f776e657220697320746865207a65726f206160008201527f6464726573730000000000000000000000000000000000000000000000000000602082015250565b6000613f37602683612f4f565b9150613f4282613edb565b604082019050919050565b60006020820190508181036000830152613f6681613f2a565b9050919050565b7f4552433732313a206d696e7420746f20746865207a65726f2061646472657373600082015250565b6000613fa3602083612f4f565b9150613fae82613f6d565b602082019050919050565b60006020820190508181036000830152613fd281613f96565b9050919050565b7f4552433732313a20746f6b656e20616c7265616479206d696e74656400000000600082015250565b600061400f601c83612f4f565b915061401a82613fd9565b602082019050919050565b6000602082019050818103600083015261403e81614002565b9050919050565b7f45524337323155524953746f726167653a2055524920736574206f66206e6f6e60008201527f6578697374656e7420746f6b656e000000000000000000000000000000000000602082015250565b60006140a1602e83612f4f565b91506140ac82614045565b604082019050919050565b600060208201905081810360008301526140d081614094565b9050919050565b60008190508160005260206000209050919050565b60006020601f8301049050919050565b600082821b905092915050565b6000600883026141397fffffffffffffffffffffffffffffffffffffffffffffffffffffffffffffffff826140fc565b61414386836140fc565b95508019841693508086168417925050509392505050565b6000819050919050565b600061418061417b61417684612ff6565b61415b565b612ff6565b9050919050565b6000819050919050565b61419a83614165565b6141ae6141a682614187565b848454614109565b825550505050565b600090565b6141c36141b6565b6141ce818484614191565b505050565b5b818110156141f2576141e76000826141bb565b6001810190506141d4565b5050565b601f82111561423757614208816140d7565b614211846140ec565b81016020851015614220578190505b61423461422c856140ec565b8301826141d3565b50505b505050565b600082821c905092915050565b600061425a6000198460080261423c565b1980831691505092915050565b60006142738383614249565b9150826002028217905092915050565b61428c82612f44565b67ffffffffffffffff8111156142a5576142a46130eb565b5b6142af8254613764565b6142ba8282856141f6565b600060209050601f8311600181146142ed57600084156142db578287015190505b6142e58582614267565b86555061434d565b601f1984166142fb866140d7565b60005b82811015614323578489015182556001820191506020850194506020810190506142fe565b86831015614340578489015161433c601f891682614249565b8355505b6001600288020188555050505b505050505050565b7f4f776e61626c653a2063616c6c6572206973206e6f7420746865206f776e6572600082015250565b600061438b602083612f4f565b915061439682614355565b602082019050919050565b600060208201905081810360008301526143ba8161437e565b9050919050565b7f4552433732313a207472616e736665722066726f6d20696e636f72726563742060008201527f6f776e6572000000000000000000000000000000000000000000000000000000602082015250565b600061441d602583612f4f565b9150614428826143c1565b604082019050919050565b6000602082019050818103600083015261444c81614410565b9050919050565b7f4552433732313a207472616e7366657220746f20746865207a65726f2061646460008201527f7265737300000000000000000000000000000000000000000000000000000000602082015250565b60006144af602483612f4f565b91506144ba82614453565b604082019050919050565b600060208201905081810360008301526144de816144a2565b9050919050565b7f4552433732313a20617070726f766520746f2063616c6c657200000000000000600082015250565b600061451b601983612f4f565b9150614526826144e5565b602082019050919050565b6000602082019050818103600083015261454a8161450e565b9050919050565b7f4552433732313a207472616e7366657220746f206e6f6e20455243373231526560008201527f63656976657220696d706c656d656e7465720000000000000000000000000000602082015250565b60006145ad603283612f4f565b91506145b882614551565b604082019050919050565b600060208201905081810360008301526145dc816145a0565b9050919050565b600081905092915050565b60006145f982612f44565b61460381856145e3565b9350614613818560208601612f60565b80840191505092915050565b600061462b82856145ee565b915061463782846145ee565b91508190509392505050565b600081519050919050565b600082825260208201905092915050565b600061466a82614643565b614674818561464e565b9350614684818560208601612f60565b61468d81612f8a565b840191505092915050565b60006080820190506146ad600083018761308b565b6146ba602083018661308b565b6146c76040830185613285565b81810360608301526146d9818461465f565b905095945050505050565b6000815190506146f381612eb5565b92915050565b60006020828403121561470f5761470e612e7f565b5b600061471d848285016146e4565b91505092915050565b7f455243373231456e756d657261626c653a20636f6e736563757469766520747260008201527f616e7366657273206e6f7420737570706f727465640000000000000000000000602082015250565b6000614782603583612f4f565b915061478d82614726565b604082019050919050565b600060208201905081810360008301526147b181614775565b9050919050565b7f4e487b7100000000000000000000000000000000000000000000000000000000600052601260045260246000fd5b60006147f282612ff6565b91506147fd83612ff6565b925082820390508181111561481557614814613e30565b5b92915050565b7f4e487b7100000000000000000000000000000000000000000000000000000000600052603160045260246000fdfea2646970667358221220eb49f71db371129c1b9b780395ab5fc00cab8bca594058485e51017fbee7d68e64736f6c63430008130033",
  "linkReferences": {},
  "deployedLinkReferences": {}
}